{
  "abi": [
    {
      "inputs": [
        {
          "internalType": "address",
          "name": "_oracle",
          "type": "address"
        },
        {
          "internalType": "string",
          "name": "_jobId",
          "type": "string"
        },
        {
          "internalType": "uint256",
          "name": "_fee",
          "type": "uint256"
        },
        {
          "internalType": "address",
          "name": "_link",
          "type": "address"
        },
        {
          "internalType": "address",
          "name": "_priceFeed",
          "type": "address"
        }
      ],
      "stateMutability": "nonpayable",
      "type": "constructor"
    },
    {
      "anonymous": false,
      "inputs": [
        {
          "indexed": true,
          "internalType": "bytes32",
          "name": "id",
          "type": "bytes32"
        }
      ],
      "name": "ChainlinkCancelled",
      "type": "event"
    },
    {
      "anonymous": false,
      "inputs": [
        {
          "indexed": true,
          "internalType": "bytes32",
          "name": "id",
          "type": "bytes32"
        }
      ],
      "name": "ChainlinkFulfilled",
      "type": "event"
    },
    {
      "anonymous": false,
      "inputs": [
        {
          "indexed": true,
          "internalType": "bytes32",
          "name": "id",
          "type": "bytes32"
        }
      ],
      "name": "ChainlinkRequested",
      "type": "event"
    },
    {
      "inputs": [
        {
          "internalType": "bytes32",
          "name": "_requestId",
          "type": "bytes32"
        },
        {
          "internalType": "int256",
          "name": "_price",
          "type": "int256"
        }
      ],
      "name": "fulfill",
      "outputs": [],
      "stateMutability": "nonpayable",
      "type": "function"
    },
    {
      "inputs": [],
      "name": "getLatestPrice",
      "outputs": [
        {
          "internalType": "int256",
          "name": "",
          "type": "int256"
        }
      ],
      "stateMutability": "view",
      "type": "function"
    },
    {
      "inputs": [],
      "name": "priceFeedGreater",
      "outputs": [
        {
          "internalType": "bool",
          "name": "",
          "type": "bool"
        }
      ],
      "stateMutability": "view",
      "type": "function"
    },
    {
      "inputs": [],
      "name": "requestPriceData",
      "outputs": [
        {
          "internalType": "bytes32",
          "name": "requestId",
          "type": "bytes32"
        }
      ],
      "stateMutability": "nonpayable",
      "type": "function"
    },
    {
      "inputs": [
        {
          "internalType": "string",
          "name": "source",
          "type": "string"
        }
      ],
      "name": "stringToBytes32",
      "outputs": [
        {
          "internalType": "bytes32",
          "name": "result",
          "type": "bytes32"
        }
      ],
      "stateMutability": "pure",
      "type": "function"
    },
    {
      "inputs": [],
      "name": "withdrawLink",
      "outputs": [],
      "stateMutability": "nonpayable",
      "type": "function"
    }
  ],
  "bytecode": "608060405260016004553480156200001657600080fd5b506040516200108338038062001083833981810160405260a08110156200003c57600080fd5b8151602083018051604051929492938301929190846401000000008211156200006457600080fd5b9083019060208201858111156200007a57600080fd5b82516401000000008111828201881017156200009557600080fd5b82525081516020918201929091019080838360005b83811015620000c4578181015183820152602001620000aa565b50505050905090810190601f168015620000f25780820380516001836020036101000a031916815260200191505b5060409081526020820151908201516060909201519093509091506001600160a01b0382166200012c57620001266200018f565b62000137565b620001378262000217565b600680546001600160a01b0319166001600160a01b0387161790556200015d8462000239565b60075560089290925550600980546001600160a01b0319166001600160a01b03909216919091179055506200025d9050565b6200021573c89bd4e1632d3a43cb03aaad5262cbe4038bc5716001600160a01b03166338cc48316040518163ffffffff1660e01b815260040160206040518083038186803b158015620001e157600080fd5b505afa158015620001f6573d6000803e3d6000fd5b505050506040513d60208110156200020d57600080fd5b505162000217565b565b600280546001600160a01b0319166001600160a01b0392909216919091179055565b805160009082906200025057506000905062000258565b505060208101515b919050565b610e16806200026d6000396000f3fe608060405234801561001057600080fd5b50600436106100625760003560e01c806347863b08146100675780638dc654a2146100835780638e15f4731461008d578063bda71d04146100a7578063cfb51928146100ca578063d732286214610170575b600080fd5b61006f610178565b604080519115158252519081900360200190f35b61008b610188565b005b6100956102e1565b60408051918252519081900360200190f35b61008b600480360360408110156100bd57600080fd5b5080359060200135610371565b610095600480360360208110156100e057600080fd5b8101906020810181356401000000008111156100fb57600080fd5b82018360208201111561010d57600080fd5b8035906020019184600183028401116401000000008311171561012f57600080fd5b91908080601f016020809104026020016040519081016040528093929190818152602001838380828437600092019190915250929550610445945050505050565b610095610467565b600954600160a01b900460ff1681565b6000610192610576565b9050806001600160a01b031663a9059cbb33836001600160a01b03166370a08231306040518263ffffffff1660e01b815260040180826001600160a01b0316815260200191505060206040518083038186803b1580156101f157600080fd5b505afa158015610205573d6000803e3d6000fd5b505050506040513d602081101561021b57600080fd5b5051604080516001600160e01b031960e086901b1681526001600160a01b03909316600484015260248301919091525160448083019260209291908290030181600087803b15801561026c57600080fd5b505af1158015610280573d6000803e3d6000fd5b505050506040513d602081101561029657600080fd5b50516102de576040805162461bcd60e51b81526020600482015260126024820152712ab730b13632903a37903a3930b739b332b960711b604482015290519081900360640190fd5b50565b600080600080600080600960009054906101000a90046001600160a01b03166001600160a01b031663feaf968c6040518163ffffffff1660e01b815260040160a06040518083038186803b15801561033857600080fd5b505afa15801561034c573d6000803e3d6000fd5b505050506040513d60a081101561036257600080fd5b50602001519550505050505090565b60008281526005602052604090205482906001600160a01b031633146103c85760405162461bcd60e51b8152600401808060200182810382526028815260200180610db96028913960400191505060405180910390fd5b60008181526005602052604080822080546001600160a01b03191690555182917f7cc135e0cebb02c3480ae5d74d377283180a2601f8f644edf7987b009316c63a91a2816104146102e1565b1315610432576009805460ff60a01b1916600160a01b179055610440565b6009805460ff60a01b191690555b505050565b8051600090829061045a575060009050610462565b505060208101515b919050565b6000610471610cfd565b6007546104869030632f69c74160e21b610585565b90506104c86040518060400160405280600381526020016219d95d60ea1b815250604051806080016040528060498152602001610d70604991398391906105aa565b610522604051806040016040528060048152602001630e0c2e8d60e31b815250604051806040016040528060118152602001705241572e4254432e5553442e505249434560781b815250836105aa9092919063ffffffff16565b60408051808201909152600581526474696d657360d81b6020820152670de0b6b3a764000090610554908390836105c8565b60065460085461056f916001600160a01b03169084906105e6565b9250505090565b6002546001600160a01b031690565b61058d610cfd565b610595610cfd565b6105a1818686866107b4565b95945050505050565b60808301516105b990836107f1565b608083015161044090826107f1565b60808301516105d790836107f1565b60808301516104409082610808565b6004546040805130606090811b60208084019190915260348084018690528451808503909101815260549093018452825192810192909220908601939093526000838152600590915281812080546001600160a01b0319166001600160a01b038816179055905182917fb5e6e01e79f91267dc17b4e6314d5d4d03593d2ceee0fbb452b750bd70ea5af991a26002546001600160a01b0316634000aea0858461068e87610867565b6040518463ffffffff1660e01b815260040180846001600160a01b0316815260200183815260200180602001828103825283818151815260200191508051906020019080838360005b838110156106ef5781810151838201526020016106d7565b50505050905090810190601f16801561071c5780820380516001836020036101000a031916815260200191505b50945050505050602060405180830381600087803b15801561073d57600080fd5b505af1158015610751573d6000803e3d6000fd5b505050506040513d602081101561076757600080fd5b50516107a45760405162461bcd60e51b8152600401808060200182810382526023815260200180610d4d6023913960400191505060405180910390fd5b6004805460010190559392505050565b6107bc610cfd565b6107cc856080015161010061098b565b50509183526001600160a01b031660208301526001600160e01b031916604082015290565b6107fe82600383516109cb565b6104408282610aa5565b67ffffffffffffffff19811215610828576108238282610ac6565b610863565b67ffffffffffffffff811315610842576108238282610aff565b6000811261085657610823826000836109cb565b61086382600183196109cb565b5050565b6060634042994660e01b6000808460000151856020015186604001518760600151600189608001516000015160405160240180896001600160a01b03168152602001888152602001878152602001866001600160a01b03168152602001856001600160e01b031916815260200184815260200183815260200180602001828103825283818151815260200191508051906020019080838360005b83811015610919578181015183820152602001610901565b50505050905090810190601f1680156109465780820380516001836020036101000a031916815260200191505b5060408051601f198184030181529190526020810180516001600160e01b03166001600160e01b0319909d169c909c17909b5250989950505050505050505050919050565b610993610d32565b60208206156109a85760208206602003820191505b506020808301829052604080518085526000815283019091019052815b92915050565b601781116109ec576109e68360e0600585901b168317610b34565b50610440565b60ff8111610a1657610a09836018611fe0600586901b1617610b34565b506109e683826001610b4c565b61ffff8111610a4157610a34836019611fe0600586901b1617610b34565b506109e683826002610b4c565b63ffffffff8111610a6e57610a6183601a611fe0600586901b1617610b34565b506109e683826004610b4c565b67ffffffffffffffff811161044057610a9283601b611fe0600586901b1617610b34565b50610a9f83826008610b4c565b50505050565b610aad610d32565b610abf83846000015151848551610b6d565b9392505050565b610ad18260c3610b34565b5061086382826000190360405160200180828152602001915050604051602081830303815290604052610c19565b610b0a8260c2610b34565b50610863828260405160200180828152602001915050604051602081830303815290604052610c19565b610b3c610d32565b610abf8384600001515184610c26565b610b54610d32565b610b65848560000151518585610c71565b949350505050565b610b75610d32565b8251821115610b8357600080fd5b84602001518285011115610bad57610bad85610ba58760200151878601610ccf565b600202610ce6565b600080865180518760208301019350808887011115610bcc5787860182525b505050602084015b60208410610bf35780518252601f199093019260209182019101610bd4565b51815160001960208690036101000a019081169019919091161790525083949350505050565b6107fe82600283516109cb565b610c2e610d32565b83602001518310610c4a57610c4a848560200151600202610ce6565b835180516020858301018481535080851415610c67576001810182525b5093949350505050565b610c79610d32565b84602001518483011115610c9657610c9685858401600202610ce6565b60006001836101000a039050855183868201018583198251161781525080518487011115610cc45783860181525b509495945050505050565b600081831115610ce05750816109c5565b50919050565b8151610cf2838361098b565b50610a9f8382610aa5565b6040805160a081018252600080825260208201819052918101829052606081019190915260808101610d2d610d32565b905290565b60405180604001604052806060815260200160008152509056fe756e61626c6520746f207472616e73666572416e6443616c6c20746f206f7261636c6568747470733a2f2f6d696e2d6170692e63727970746f636f6d706172652e636f6d2f646174612f70726963656d756c746966756c6c3f6673796d733d425443267473796d733d555344536f75726365206d75737420626520746865206f7261636c65206f66207468652072657175657374a2646970667358221220e9952e9525bb4bf55431680fd2ceccda913df42a42591e709b034b2dc208499e64736f6c634300060c0033",
  "bytecodeSha1": "777aca02e731c0b10233cdf3aa6660fd5692afe3",
  "compiler": {
    "evm_version": "istanbul",
    "optimizer": {
      "enabled": true,
      "runs": 200
    },
    "version": "0.6.12+commit.27d51765"
  },
  "contractName": "PriceExercise",
  "language": "Solidity",
  "natspec": {
    "kind": "dev",
    "methods": {
      "fulfill(bytes32,int256)": {
        "notice": "Receive the response in the form of uint256"
      },
      "requestPriceData()": {
        "notice": "Create a Chainlink request to retrieve API response, find the target data, then multiply by 1000000000000000000 (to remove decimal places from data).************************************************************************************                                    STOP!                                         *         THIS FUNCTION WILL FAIL IF THIS CONTRACT DOES NOT OWN LINK               *         ----------------------------------------------------------               *         Learn how to obtain testnet LINK and fund this contract:                 *         ------- https://docs.chain.link/docs/acquire-link --------               *         ---- https://docs.chain.link/docs/fund-your-contract -----               *                                                                                  ************************************************************************************"
      },
      "withdrawLink()": {
        "notice": "Withdraw LINK from this contract NOTE: DO NOT USE THIS IN PRODUCTION AS IT CAN BE CALLED BY ANY ADDRESS. THIS IS PURELY FOR EXAMPLE PURPOSES ONLY."
      }
    },
    "version": 1
  },
  "opcodes": "PUSH1 0x80 PUSH1 0x40 MSTORE CALLVALUE DUP1 ISZERO PUSH2 0x10 JUMPI PUSH1 0x0 DUP1 REVERT JUMPDEST POP PUSH1 0x4 CALLDATASIZE LT PUSH2 0x62 JUMPI PUSH1 0x0 CALLDATALOAD PUSH1 0xE0 SHR DUP1 PUSH4 0x47863B08 EQ PUSH2 0x67 JUMPI DUP1 PUSH4 0x8DC654A2 EQ PUSH2 0x83 JUMPI DUP1 PUSH4 0x8E15F473 EQ PUSH2 0x8D JUMPI DUP1 PUSH4 0xBDA71D04 EQ PUSH2 0xA7 JUMPI DUP1 PUSH4 0xCFB51928 EQ PUSH2 0xCA JUMPI DUP1 PUSH4 0xD7322862 EQ PUSH2 0x170 JUMPI JUMPDEST PUSH1 0x0 DUP1 REVERT JUMPDEST PUSH2 0x6F PUSH2 0x178 JUMP JUMPDEST PUSH1 0x40 DUP1 MLOAD SWAP2 ISZERO ISZERO DUP3 MSTORE MLOAD SWAP1 DUP2 SWAP1 SUB PUSH1 0x20 ADD SWAP1 RETURN JUMPDEST PUSH2 0x8B PUSH2 0x188 JUMP JUMPDEST STOP JUMPDEST PUSH2 0x95 PUSH2 0x2E1 JUMP JUMPDEST PUSH1 0x40 DUP1 MLOAD SWAP2 DUP3 MSTORE MLOAD SWAP1 DUP2 SWAP1 SUB PUSH1 0x20 ADD SWAP1 RETURN JUMPDEST PUSH2 0x8B PUSH1 0x4 DUP1 CALLDATASIZE SUB PUSH1 0x40 DUP2 LT ISZERO PUSH2 0xBD JUMPI PUSH1 0x0 DUP1 REVERT JUMPDEST POP DUP1 CALLDATALOAD SWAP1 PUSH1 0x20 ADD CALLDATALOAD PUSH2 0x371 JUMP JUMPDEST PUSH2 0x95 PUSH1 0x4 DUP1 CALLDATASIZE SUB PUSH1 0x20 DUP2 LT ISZERO PUSH2 0xE0 JUMPI PUSH1 0x0 DUP1 REVERT JUMPDEST DUP2 ADD SWAP1 PUSH1 0x20 DUP2 ADD DUP2 CALLDATALOAD PUSH5 0x100000000 DUP2 GT ISZERO PUSH2 0xFB JUMPI PUSH1 0x0 DUP1 REVERT JUMPDEST DUP3 ADD DUP4 PUSH1 0x20 DUP3 ADD GT ISZERO PUSH2 0x10D JUMPI PUSH1 0x0 DUP1 REVERT JUMPDEST DUP1 CALLDATALOAD SWAP1 PUSH1 0x20 ADD SWAP2 DUP5 PUSH1 0x1 DUP4 MUL DUP5 ADD GT PUSH5 0x100000000 DUP4 GT OR ISZERO PUSH2 0x12F JUMPI PUSH1 0x0 DUP1 REVERT JUMPDEST SWAP2 SWAP1 DUP1 DUP1 PUSH1 0x1F ADD PUSH1 0x20 DUP1 SWAP2 DIV MUL PUSH1 0x20 ADD PUSH1 0x40 MLOAD SWAP1 DUP2 ADD PUSH1 0x40 MSTORE DUP1 SWAP4 SWAP3 SWAP2 SWAP1 DUP2 DUP2 MSTORE PUSH1 0x20 ADD DUP4 DUP4 DUP1 DUP3 DUP5 CALLDATACOPY PUSH1 0x0 SWAP3 ADD SWAP2 SWAP1 SWAP2 MSTORE POP SWAP3 SWAP6 POP PUSH2 0x445 SWAP5 POP POP POP POP POP JUMP JUMPDEST PUSH2 0x95 PUSH2 0x467 JUMP JUMPDEST PUSH1 0x9 SLOAD PUSH1 0x1 PUSH1 0xA0 SHL SWAP1 DIV PUSH1 0xFF AND DUP2 JUMP JUMPDEST PUSH1 0x0 PUSH2 0x192 PUSH2 0x576 JUMP JUMPDEST SWAP1 POP DUP1 PUSH1 0x1 PUSH1 0x1 PUSH1 0xA0 SHL SUB AND PUSH4 0xA9059CBB CALLER DUP4 PUSH1 0x1 PUSH1 0x1 PUSH1 0xA0 SHL SUB AND PUSH4 0x70A08231 ADDRESS PUSH1 0x40 MLOAD DUP3 PUSH4 0xFFFFFFFF AND PUSH1 0xE0 SHL DUP2 MSTORE PUSH1 0x4 ADD DUP1 DUP3 PUSH1 0x1 PUSH1 0x1 PUSH1 0xA0 SHL SUB AND DUP2 MSTORE PUSH1 0x20 ADD SWAP2 POP POP PUSH1 0x20 PUSH1 0x40 MLOAD DUP1 DUP4 SUB DUP2 DUP7 DUP1 EXTCODESIZE ISZERO DUP1 ISZERO PUSH2 0x1F1 JUMPI PUSH1 0x0 DUP1 REVERT JUMPDEST POP GAS STATICCALL ISZERO DUP1 ISZERO PUSH2 0x205 JUMPI RETURNDATASIZE PUSH1 0x0 DUP1 RETURNDATACOPY RETURNDATASIZE PUSH1 0x0 REVERT JUMPDEST POP POP POP POP PUSH1 0x40 MLOAD RETURNDATASIZE PUSH1 0x20 DUP2 LT ISZERO PUSH2 0x21B JUMPI PUSH1 0x0 DUP1 REVERT JUMPDEST POP MLOAD PUSH1 0x40 DUP1 MLOAD PUSH1 0x1 PUSH1 0x1 PUSH1 0xE0 SHL SUB NOT PUSH1 0xE0 DUP7 SWAP1 SHL AND DUP2 MSTORE PUSH1 0x1 PUSH1 0x1 PUSH1 0xA0 SHL SUB SWAP1 SWAP4 AND PUSH1 0x4 DUP5 ADD MSTORE PUSH1 0x24 DUP4 ADD SWAP2 SWAP1 SWAP2 MSTORE MLOAD PUSH1 0x44 DUP1 DUP4 ADD SWAP3 PUSH1 0x20 SWAP3 SWAP2 SWAP1 DUP3 SWAP1 SUB ADD DUP2 PUSH1 0x0 DUP8 DUP1 EXTCODESIZE ISZERO DUP1 ISZERO PUSH2 0x26C JUMPI PUSH1 0x0 DUP1 REVERT JUMPDEST POP GAS CALL ISZERO DUP1 ISZERO PUSH2 0x280 JUMPI RETURNDATASIZE PUSH1 0x0 DUP1 RETURNDATACOPY RETURNDATASIZE PUSH1 0x0 REVERT JUMPDEST POP POP POP POP PUSH1 0x40 MLOAD RETURNDATASIZE PUSH1 0x20 DUP2 LT ISZERO PUSH2 0x296 JUMPI PUSH1 0x0 DUP1 REVERT JUMPDEST POP MLOAD PUSH2 0x2DE JUMPI PUSH1 0x40 DUP1 MLOAD PUSH3 0x461BCD PUSH1 0xE5 SHL DUP2 MSTORE PUSH1 0x20 PUSH1 0x4 DUP3 ADD MSTORE PUSH1 0x12 PUSH1 0x24 DUP3 ADD MSTORE PUSH18 0x2AB730B13632903A37903A3930B739B332B9 PUSH1 0x71 SHL PUSH1 0x44 DUP3 ADD MSTORE SWAP1 MLOAD SWAP1 DUP2 SWAP1 SUB PUSH1 0x64 ADD SWAP1 REVERT JUMPDEST POP JUMP JUMPDEST PUSH1 0x0 DUP1 PUSH1 0x0 DUP1 PUSH1 0x0 DUP1 PUSH1 0x9 PUSH1 0x0 SWAP1 SLOAD SWAP1 PUSH2 0x100 EXP SWAP1 DIV PUSH1 0x1 PUSH1 0x1 PUSH1 0xA0 SHL SUB AND PUSH1 0x1 PUSH1 0x1 PUSH1 0xA0 SHL SUB AND PUSH4 0xFEAF968C PUSH1 0x40 MLOAD DUP2 PUSH4 0xFFFFFFFF AND PUSH1 0xE0 SHL DUP2 MSTORE PUSH1 0x4 ADD PUSH1 0xA0 PUSH1 0x40 MLOAD DUP1 DUP4 SUB DUP2 DUP7 DUP1 EXTCODESIZE ISZERO DUP1 ISZERO PUSH2 0x338 JUMPI PUSH1 0x0 DUP1 REVERT JUMPDEST POP GAS STATICCALL ISZERO DUP1 ISZERO PUSH2 0x34C JUMPI RETURNDATASIZE PUSH1 0x0 DUP1 RETURNDATACOPY RETURNDATASIZE PUSH1 0x0 REVERT JUMPDEST POP POP POP POP PUSH1 0x40 MLOAD RETURNDATASIZE PUSH1 0xA0 DUP2 LT ISZERO PUSH2 0x362 JUMPI PUSH1 0x0 DUP1 REVERT JUMPDEST POP PUSH1 0x20 ADD MLOAD SWAP6 POP POP POP POP POP POP SWAP1 JUMP JUMPDEST PUSH1 0x0 DUP3 DUP2 MSTORE PUSH1 0x5 PUSH1 0x20 MSTORE PUSH1 0x40 SWAP1 KECCAK256 SLOAD DUP3 SWAP1 PUSH1 0x1 PUSH1 0x1 PUSH1 0xA0 SHL SUB AND CALLER EQ PUSH2 0x3C8 JUMPI PUSH1 0x40 MLOAD PUSH3 0x461BCD PUSH1 0xE5 SHL DUP2 MSTORE PUSH1 0x4 ADD DUP1 DUP1 PUSH1 0x20 ADD DUP3 DUP2 SUB DUP3 MSTORE PUSH1 0x28 DUP2 MSTORE PUSH1 0x20 ADD DUP1 PUSH2 0xDB9 PUSH1 0x28 SWAP2 CODECOPY PUSH1 0x40 ADD SWAP2 POP POP PUSH1 0x40 MLOAD DUP1 SWAP2 SUB SWAP1 REVERT JUMPDEST PUSH1 0x0 DUP2 DUP2 MSTORE PUSH1 0x5 PUSH1 0x20 MSTORE PUSH1 0x40 DUP1 DUP3 KECCAK256 DUP1 SLOAD PUSH1 0x1 PUSH1 0x1 PUSH1 0xA0 SHL SUB NOT AND SWAP1 SSTORE MLOAD DUP3 SWAP2 PUSH32 0x7CC135E0CEBB02C3480AE5D74D377283180A2601F8F644EDF7987B009316C63A SWAP2 LOG2 DUP2 PUSH2 0x414 PUSH2 0x2E1 JUMP JUMPDEST SGT ISZERO PUSH2 0x432 JUMPI PUSH1 0x9 DUP1 SLOAD PUSH1 0xFF PUSH1 0xA0 SHL NOT AND PUSH1 0x1 PUSH1 0xA0 SHL OR SWAP1 SSTORE PUSH2 0x440 JUMP JUMPDEST PUSH1 0x9 DUP1 SLOAD PUSH1 0xFF PUSH1 0xA0 SHL NOT AND SWAP1 SSTORE JUMPDEST POP POP POP JUMP JUMPDEST DUP1 MLOAD PUSH1 0x0 SWAP1 DUP3 SWAP1 PUSH2 0x45A JUMPI POP PUSH1 0x0 SWAP1 POP PUSH2 0x462 JUMP JUMPDEST POP POP PUSH1 0x20 DUP2 ADD MLOAD JUMPDEST SWAP2 SWAP1 POP JUMP JUMPDEST PUSH1 0x0 PUSH2 0x471 PUSH2 0xCFD JUMP JUMPDEST PUSH1 0x7 SLOAD PUSH2 0x486 SWAP1 ADDRESS PUSH4 0x2F69C741 PUSH1 0xE2 SHL PUSH2 0x585 JUMP JUMPDEST SWAP1 POP PUSH2 0x4C8 PUSH1 0x40 MLOAD DUP1 PUSH1 0x40 ADD PUSH1 0x40 MSTORE DUP1 PUSH1 0x3 DUP2 MSTORE PUSH1 0x20 ADD PUSH3 0x19D95D PUSH1 0xEA SHL DUP2 MSTORE POP PUSH1 0x40 MLOAD DUP1 PUSH1 0x80 ADD PUSH1 0x40 MSTORE DUP1 PUSH1 0x49 DUP2 MSTORE PUSH1 0x20 ADD PUSH2 0xD70 PUSH1 0x49 SWAP2 CODECOPY DUP4 SWAP2 SWAP1 PUSH2 0x5AA JUMP JUMPDEST PUSH2 0x522 PUSH1 0x40 MLOAD DUP1 PUSH1 0x40 ADD PUSH1 0x40 MSTORE DUP1 PUSH1 0x4 DUP2 MSTORE PUSH1 0x20 ADD PUSH4 0xE0C2E8D PUSH1 0xE3 SHL DUP2 MSTORE POP PUSH1 0x40 MLOAD DUP1 PUSH1 0x40 ADD PUSH1 0x40 MSTORE DUP1 PUSH1 0x11 DUP2 MSTORE PUSH1 0x20 ADD PUSH17 0x5241572E4254432E5553442E5052494345 PUSH1 0x78 SHL DUP2 MSTORE POP DUP4 PUSH2 0x5AA SWAP1 SWAP3 SWAP2 SWAP1 PUSH4 0xFFFFFFFF AND JUMP JUMPDEST PUSH1 0x40 DUP1 MLOAD DUP1 DUP3 ADD SWAP1 SWAP2 MSTORE PUSH1 0x5 DUP2 MSTORE PUSH5 0x74696D6573 PUSH1 0xD8 SHL PUSH1 0x20 DUP3 ADD MSTORE PUSH8 0xDE0B6B3A7640000 SWAP1 PUSH2 0x554 SWAP1 DUP4 SWAP1 DUP4 PUSH2 0x5C8 JUMP JUMPDEST PUSH1 0x6 SLOAD PUSH1 0x8 SLOAD PUSH2 0x56F SWAP2 PUSH1 0x1 PUSH1 0x1 PUSH1 0xA0 SHL SUB AND SWAP1 DUP5 SWAP1 PUSH2 0x5E6 JUMP JUMPDEST SWAP3 POP POP POP SWAP1 JUMP JUMPDEST PUSH1 0x2 SLOAD PUSH1 0x1 PUSH1 0x1 PUSH1 0xA0 SHL SUB AND SWAP1 JUMP JUMPDEST PUSH2 0x58D PUSH2 0xCFD JUMP JUMPDEST PUSH2 0x595 PUSH2 0xCFD JUMP JUMPDEST PUSH2 0x5A1 DUP2 DUP7 DUP7 DUP7 PUSH2 0x7B4 JUMP JUMPDEST SWAP6 SWAP5 POP POP POP POP POP JUMP JUMPDEST PUSH1 0x80 DUP4 ADD MLOAD PUSH2 0x5B9 SWAP1 DUP4 PUSH2 0x7F1 JUMP JUMPDEST PUSH1 0x80 DUP4 ADD MLOAD PUSH2 0x440 SWAP1 DUP3 PUSH2 0x7F1 JUMP JUMPDEST PUSH1 0x80 DUP4 ADD MLOAD PUSH2 0x5D7 SWAP1 DUP4 PUSH2 0x7F1 JUMP JUMPDEST PUSH1 0x80 DUP4 ADD MLOAD PUSH2 0x440 SWAP1 DUP3 PUSH2 0x808 JUMP JUMPDEST PUSH1 0x4 SLOAD PUSH1 0x40 DUP1 MLOAD ADDRESS PUSH1 0x60 SWAP1 DUP2 SHL PUSH1 0x20 DUP1 DUP5 ADD SWAP2 SWAP1 SWAP2 MSTORE PUSH1 0x34 DUP1 DUP5 ADD DUP7 SWAP1 MSTORE DUP5 MLOAD DUP1 DUP6 SUB SWAP1 SWAP2 ADD DUP2 MSTORE PUSH1 0x54 SWAP1 SWAP4 ADD DUP5 MSTORE DUP3 MLOAD SWAP3 DUP2 ADD SWAP3 SWAP1 SWAP3 KECCAK256 SWAP1 DUP7 ADD SWAP4 SWAP1 SWAP4 MSTORE PUSH1 0x0 DUP4 DUP2 MSTORE PUSH1 0x5 SWAP1 SWAP2 MSTORE DUP2 DUP2 KECCAK256 DUP1 SLOAD PUSH1 0x1 PUSH1 0x1 PUSH1 0xA0 SHL SUB NOT AND PUSH1 0x1 PUSH1 0x1 PUSH1 0xA0 SHL SUB DUP9 AND OR SWAP1 SSTORE SWAP1 MLOAD DUP3 SWAP2 PUSH32 0xB5E6E01E79F91267DC17B4E6314D5D4D03593D2CEEE0FBB452B750BD70EA5AF9 SWAP2 LOG2 PUSH1 0x2 SLOAD PUSH1 0x1 PUSH1 0x1 PUSH1 0xA0 SHL SUB AND PUSH4 0x4000AEA0 DUP6 DUP5 PUSH2 0x68E DUP8 PUSH2 0x867 JUMP JUMPDEST PUSH1 0x40 MLOAD DUP5 PUSH4 0xFFFFFFFF AND PUSH1 0xE0 SHL DUP2 MSTORE PUSH1 0x4 ADD DUP1 DUP5 PUSH1 0x1 PUSH1 0x1 PUSH1 0xA0 SHL SUB AND DUP2 MSTORE PUSH1 0x20 ADD DUP4 DUP2 MSTORE PUSH1 0x20 ADD DUP1 PUSH1 0x20 ADD DUP3 DUP2 SUB DUP3 MSTORE DUP4 DUP2 DUP2 MLOAD DUP2 MSTORE PUSH1 0x20 ADD SWAP2 POP DUP1 MLOAD SWAP1 PUSH1 0x20 ADD SWAP1 DUP1 DUP4 DUP4 PUSH1 0x0 JUMPDEST DUP4 DUP2 LT ISZERO PUSH2 0x6EF JUMPI DUP2 DUP2 ADD MLOAD DUP4 DUP3 ADD MSTORE PUSH1 0x20 ADD PUSH2 0x6D7 JUMP JUMPDEST POP POP POP POP SWAP1 POP SWAP1 DUP2 ADD SWAP1 PUSH1 0x1F AND DUP1 ISZERO PUSH2 0x71C JUMPI DUP1 DUP3 SUB DUP1 MLOAD PUSH1 0x1 DUP4 PUSH1 0x20 SUB PUSH2 0x100 EXP SUB NOT AND DUP2 MSTORE PUSH1 0x20 ADD SWAP2 POP JUMPDEST POP SWAP5 POP POP POP POP POP PUSH1 0x20 PUSH1 0x40 MLOAD DUP1 DUP4 SUB DUP2 PUSH1 0x0 DUP8 DUP1 EXTCODESIZE ISZERO DUP1 ISZERO PUSH2 0x73D JUMPI PUSH1 0x0 DUP1 REVERT JUMPDEST POP GAS CALL ISZERO DUP1 ISZERO PUSH2 0x751 JUMPI RETURNDATASIZE PUSH1 0x0 DUP1 RETURNDATACOPY RETURNDATASIZE PUSH1 0x0 REVERT JUMPDEST POP POP POP POP PUSH1 0x40 MLOAD RETURNDATASIZE PUSH1 0x20 DUP2 LT ISZERO PUSH2 0x767 JUMPI PUSH1 0x0 DUP1 REVERT JUMPDEST POP MLOAD PUSH2 0x7A4 JUMPI PUSH1 0x40 MLOAD PUSH3 0x461BCD PUSH1 0xE5 SHL DUP2 MSTORE PUSH1 0x4 ADD DUP1 DUP1 PUSH1 0x20 ADD DUP3 DUP2 SUB DUP3 MSTORE PUSH1 0x23 DUP2 MSTORE PUSH1 0x20 ADD DUP1 PUSH2 0xD4D PUSH1 0x23 SWAP2 CODECOPY PUSH1 0x40 ADD SWAP2 POP POP PUSH1 0x40 MLOAD DUP1 SWAP2 SUB SWAP1 REVERT JUMPDEST PUSH1 0x4 DUP1 SLOAD PUSH1 0x1 ADD SWAP1 SSTORE SWAP4 SWAP3 POP POP POP JUMP JUMPDEST PUSH2 0x7BC PUSH2 0xCFD JUMP JUMPDEST PUSH2 0x7CC DUP6 PUSH1 0x80 ADD MLOAD PUSH2 0x100 PUSH2 0x98B JUMP JUMPDEST POP POP SWAP2 DUP4 MSTORE PUSH1 0x1 PUSH1 0x1 PUSH1 0xA0 SHL SUB AND PUSH1 0x20 DUP4 ADD MSTORE PUSH1 0x1 PUSH1 0x1 PUSH1 0xE0 SHL SUB NOT AND PUSH1 0x40 DUP3 ADD MSTORE SWAP1 JUMP JUMPDEST PUSH2 0x7FE DUP3 PUSH1 0x3 DUP4 MLOAD PUSH2 0x9CB JUMP JUMPDEST PUSH2 0x440 DUP3 DUP3 PUSH2 0xAA5 JUMP JUMPDEST PUSH8 0xFFFFFFFFFFFFFFFF NOT DUP2 SLT ISZERO PUSH2 0x828 JUMPI PUSH2 0x823 DUP3 DUP3 PUSH2 0xAC6 JUMP JUMPDEST PUSH2 0x863 JUMP JUMPDEST PUSH8 0xFFFFFFFFFFFFFFFF DUP2 SGT ISZERO PUSH2 0x842 JUMPI PUSH2 0x823 DUP3 DUP3 PUSH2 0xAFF JUMP JUMPDEST PUSH1 0x0 DUP2 SLT PUSH2 0x856 JUMPI PUSH2 0x823 DUP3 PUSH1 0x0 DUP4 PUSH2 0x9CB JUMP JUMPDEST PUSH2 0x863 DUP3 PUSH1 0x1 DUP4 NOT PUSH2 0x9CB JUMP JUMPDEST POP POP JUMP JUMPDEST PUSH1 0x60 PUSH4 0x40429946 PUSH1 0xE0 SHL PUSH1 0x0 DUP1 DUP5 PUSH1 0x0 ADD MLOAD DUP6 PUSH1 0x20 ADD MLOAD DUP7 PUSH1 0x40 ADD MLOAD DUP8 PUSH1 0x60 ADD MLOAD PUSH1 0x1 DUP10 PUSH1 0x80 ADD MLOAD PUSH1 0x0 ADD MLOAD PUSH1 0x40 MLOAD PUSH1 0x24 ADD DUP1 DUP10 PUSH1 0x1 PUSH1 0x1 PUSH1 0xA0 SHL SUB AND DUP2 MSTORE PUSH1 0x20 ADD DUP9 DUP2 MSTORE PUSH1 0x20 ADD DUP8 DUP2 MSTORE PUSH1 0x20 ADD DUP7 PUSH1 0x1 PUSH1 0x1 PUSH1 0xA0 SHL SUB AND DUP2 MSTORE PUSH1 0x20 ADD DUP6 PUSH1 0x1 PUSH1 0x1 PUSH1 0xE0 SHL SUB NOT AND DUP2 MSTORE PUSH1 0x20 ADD DUP5 DUP2 MSTORE PUSH1 0x20 ADD DUP4 DUP2 MSTORE PUSH1 0x20 ADD DUP1 PUSH1 0x20 ADD DUP3 DUP2 SUB DUP3 MSTORE DUP4 DUP2 DUP2 MLOAD DUP2 MSTORE PUSH1 0x20 ADD SWAP2 POP DUP1 MLOAD SWAP1 PUSH1 0x20 ADD SWAP1 DUP1 DUP4 DUP4 PUSH1 0x0 JUMPDEST DUP4 DUP2 LT ISZERO PUSH2 0x919 JUMPI DUP2 DUP2 ADD MLOAD DUP4 DUP3 ADD MSTORE PUSH1 0x20 ADD PUSH2 0x901 JUMP JUMPDEST POP POP POP POP SWAP1 POP SWAP1 DUP2 ADD SWAP1 PUSH1 0x1F AND DUP1 ISZERO PUSH2 0x946 JUMPI DUP1 DUP3 SUB DUP1 MLOAD PUSH1 0x1 DUP4 PUSH1 0x20 SUB PUSH2 0x100 EXP SUB NOT AND DUP2 MSTORE PUSH1 0x20 ADD SWAP2 POP JUMPDEST POP PUSH1 0x40 DUP1 MLOAD PUSH1 0x1F NOT DUP2 DUP5 SUB ADD DUP2 MSTORE SWAP2 SWAP1 MSTORE PUSH1 0x20 DUP2 ADD DUP1 MLOAD PUSH1 0x1 PUSH1 0x1 PUSH1 0xE0 SHL SUB AND PUSH1 0x1 PUSH1 0x1 PUSH1 0xE0 SHL SUB NOT SWAP1 SWAP14 AND SWAP13 SWAP1 SWAP13 OR SWAP1 SWAP12 MSTORE POP SWAP9 SWAP10 POP POP POP POP POP POP POP POP POP POP SWAP2 SWAP1 POP JUMP JUMPDEST PUSH2 0x993 PUSH2 0xD32 JUMP JUMPDEST PUSH1 0x20 DUP3 MOD ISZERO PUSH2 0x9A8 JUMPI PUSH1 0x20 DUP3 MOD PUSH1 0x20 SUB DUP3 ADD SWAP2 POP JUMPDEST POP PUSH1 0x20 DUP1 DUP4 ADD DUP3 SWAP1 MSTORE PUSH1 0x40 DUP1 MLOAD DUP1 DUP6 MSTORE PUSH1 0x0 DUP2 MSTORE DUP4 ADD SWAP1 SWAP2 ADD SWAP1 MSTORE DUP2 JUMPDEST SWAP3 SWAP2 POP POP JUMP JUMPDEST PUSH1 0x17 DUP2 GT PUSH2 0x9EC JUMPI PUSH2 0x9E6 DUP4 PUSH1 0xE0 PUSH1 0x5 DUP6 SWAP1 SHL AND DUP4 OR PUSH2 0xB34 JUMP JUMPDEST POP PUSH2 0x440 JUMP JUMPDEST PUSH1 0xFF DUP2 GT PUSH2 0xA16 JUMPI PUSH2 0xA09 DUP4 PUSH1 0x18 PUSH2 0x1FE0 PUSH1 0x5 DUP7 SWAP1 SHL AND OR PUSH2 0xB34 JUMP JUMPDEST POP PUSH2 0x9E6 DUP4 DUP3 PUSH1 0x1 PUSH2 0xB4C JUMP JUMPDEST PUSH2 0xFFFF DUP2 GT PUSH2 0xA41 JUMPI PUSH2 0xA34 DUP4 PUSH1 0x19 PUSH2 0x1FE0 PUSH1 0x5 DUP7 SWAP1 SHL AND OR PUSH2 0xB34 JUMP JUMPDEST POP PUSH2 0x9E6 DUP4 DUP3 PUSH1 0x2 PUSH2 0xB4C JUMP JUMPDEST PUSH4 0xFFFFFFFF DUP2 GT PUSH2 0xA6E JUMPI PUSH2 0xA61 DUP4 PUSH1 0x1A PUSH2 0x1FE0 PUSH1 0x5 DUP7 SWAP1 SHL AND OR PUSH2 0xB34 JUMP JUMPDEST POP PUSH2 0x9E6 DUP4 DUP3 PUSH1 0x4 PUSH2 0xB4C JUMP JUMPDEST PUSH8 0xFFFFFFFFFFFFFFFF DUP2 GT PUSH2 0x440 JUMPI PUSH2 0xA92 DUP4 PUSH1 0x1B PUSH2 0x1FE0 PUSH1 0x5 DUP7 SWAP1 SHL AND OR PUSH2 0xB34 JUMP JUMPDEST POP PUSH2 0xA9F DUP4 DUP3 PUSH1 0x8 PUSH2 0xB4C JUMP JUMPDEST POP POP POP POP JUMP JUMPDEST PUSH2 0xAAD PUSH2 0xD32 JUMP JUMPDEST PUSH2 0xABF DUP4 DUP5 PUSH1 0x0 ADD MLOAD MLOAD DUP5 DUP6 MLOAD PUSH2 0xB6D JUMP JUMPDEST SWAP4 SWAP3 POP POP POP JUMP JUMPDEST PUSH2 0xAD1 DUP3 PUSH1 0xC3 PUSH2 0xB34 JUMP JUMPDEST POP PUSH2 0x863 DUP3 DUP3 PUSH1 0x0 NOT SUB PUSH1 0x40 MLOAD PUSH1 0x20 ADD DUP1 DUP3 DUP2 MSTORE PUSH1 0x20 ADD SWAP2 POP POP PUSH1 0x40 MLOAD PUSH1 0x20 DUP2 DUP4 SUB SUB DUP2 MSTORE SWAP1 PUSH1 0x40 MSTORE PUSH2 0xC19 JUMP JUMPDEST PUSH2 0xB0A DUP3 PUSH1 0xC2 PUSH2 0xB34 JUMP JUMPDEST POP PUSH2 0x863 DUP3 DUP3 PUSH1 0x40 MLOAD PUSH1 0x20 ADD DUP1 DUP3 DUP2 MSTORE PUSH1 0x20 ADD SWAP2 POP POP PUSH1 0x40 MLOAD PUSH1 0x20 DUP2 DUP4 SUB SUB DUP2 MSTORE SWAP1 PUSH1 0x40 MSTORE PUSH2 0xC19 JUMP JUMPDEST PUSH2 0xB3C PUSH2 0xD32 JUMP JUMPDEST PUSH2 0xABF DUP4 DUP5 PUSH1 0x0 ADD MLOAD MLOAD DUP5 PUSH2 0xC26 JUMP JUMPDEST PUSH2 0xB54 PUSH2 0xD32 JUMP JUMPDEST PUSH2 0xB65 DUP5 DUP6 PUSH1 0x0 ADD MLOAD MLOAD DUP6 DUP6 PUSH2 0xC71 JUMP JUMPDEST SWAP5 SWAP4 POP POP POP POP JUMP JUMPDEST PUSH2 0xB75 PUSH2 0xD32 JUMP JUMPDEST DUP3 MLOAD DUP3 GT ISZERO PUSH2 0xB83 JUMPI PUSH1 0x0 DUP1 REVERT JUMPDEST DUP5 PUSH1 0x20 ADD MLOAD DUP3 DUP6 ADD GT ISZERO PUSH2 0xBAD JUMPI PUSH2 0xBAD DUP6 PUSH2 0xBA5 DUP8 PUSH1 0x20 ADD MLOAD DUP8 DUP7 ADD PUSH2 0xCCF JUMP JUMPDEST PUSH1 0x2 MUL PUSH2 0xCE6 JUMP JUMPDEST PUSH1 0x0 DUP1 DUP7 MLOAD DUP1 MLOAD DUP8 PUSH1 0x20 DUP4 ADD ADD SWAP4 POP DUP1 DUP9 DUP8 ADD GT ISZERO PUSH2 0xBCC JUMPI DUP8 DUP7 ADD DUP3 MSTORE JUMPDEST POP POP POP PUSH1 0x20 DUP5 ADD JUMPDEST PUSH1 0x20 DUP5 LT PUSH2 0xBF3 JUMPI DUP1 MLOAD DUP3 MSTORE PUSH1 0x1F NOT SWAP1 SWAP4 ADD SWAP3 PUSH1 0x20 SWAP2 DUP3 ADD SWAP2 ADD PUSH2 0xBD4 JUMP JUMPDEST MLOAD DUP2 MLOAD PUSH1 0x0 NOT PUSH1 0x20 DUP7 SWAP1 SUB PUSH2 0x100 EXP ADD SWAP1 DUP2 AND SWAP1 NOT SWAP2 SWAP1 SWAP2 AND OR SWAP1 MSTORE POP DUP4 SWAP5 SWAP4 POP POP POP POP JUMP JUMPDEST PUSH2 0x7FE DUP3 PUSH1 0x2 DUP4 MLOAD PUSH2 0x9CB JUMP JUMPDEST PUSH2 0xC2E PUSH2 0xD32 JUMP JUMPDEST DUP4 PUSH1 0x20 ADD MLOAD DUP4 LT PUSH2 0xC4A JUMPI PUSH2 0xC4A DUP5 DUP6 PUSH1 0x20 ADD MLOAD PUSH1 0x2 MUL PUSH2 0xCE6 JUMP JUMPDEST DUP4 MLOAD DUP1 MLOAD PUSH1 0x20 DUP6 DUP4 ADD ADD DUP5 DUP2 MSTORE8 POP DUP1 DUP6 EQ ISZERO PUSH2 0xC67 JUMPI PUSH1 0x1 DUP2 ADD DUP3 MSTORE JUMPDEST POP SWAP4 SWAP5 SWAP4 POP POP POP POP JUMP JUMPDEST PUSH2 0xC79 PUSH2 0xD32 JUMP JUMPDEST DUP5 PUSH1 0x20 ADD MLOAD DUP5 DUP4 ADD GT ISZERO PUSH2 0xC96 JUMPI PUSH2 0xC96 DUP6 DUP6 DUP5 ADD PUSH1 0x2 MUL PUSH2 0xCE6 JUMP JUMPDEST PUSH1 0x0 PUSH1 0x1 DUP4 PUSH2 0x100 EXP SUB SWAP1 POP DUP6 MLOAD DUP4 DUP7 DUP3 ADD ADD DUP6 DUP4 NOT DUP3 MLOAD AND OR DUP2 MSTORE POP DUP1 MLOAD DUP5 DUP8 ADD GT ISZERO PUSH2 0xCC4 JUMPI DUP4 DUP7 ADD DUP2 MSTORE JUMPDEST POP SWAP5 SWAP6 SWAP5 POP POP POP POP POP JUMP JUMPDEST PUSH1 0x0 DUP2 DUP4 GT ISZERO PUSH2 0xCE0 JUMPI POP DUP2 PUSH2 0x9C5 JUMP JUMPDEST POP SWAP2 SWAP1 POP JUMP JUMPDEST DUP2 MLOAD PUSH2 0xCF2 DUP4 DUP4 PUSH2 0x98B JUMP JUMPDEST POP PUSH2 0xA9F DUP4 DUP3 PUSH2 0xAA5 JUMP JUMPDEST PUSH1 0x40 DUP1 MLOAD PUSH1 0xA0 DUP2 ADD DUP3 MSTORE PUSH1 0x0 DUP1 DUP3 MSTORE PUSH1 0x20 DUP3 ADD DUP2 SWAP1 MSTORE SWAP2 DUP2 ADD DUP3 SWAP1 MSTORE PUSH1 0x60 DUP2 ADD SWAP2 SWAP1 SWAP2 MSTORE PUSH1 0x80 DUP2 ADD PUSH2 0xD2D PUSH2 0xD32 JUMP JUMPDEST SWAP1 MSTORE SWAP1 JUMP JUMPDEST PUSH1 0x40 MLOAD DUP1 PUSH1 0x40 ADD PUSH1 0x40 MSTORE DUP1 PUSH1 0x60 DUP2 MSTORE PUSH1 0x20 ADD PUSH1 0x0 DUP2 MSTORE POP SWAP1 JUMP INVALID PUSH22 0x6E61626C6520746F207472616E73666572416E644361 PUSH13 0x6C20746F206F7261636C656874 PUSH21 0x70733A2F2F6D696E2D6170692E63727970746F636F PUSH14 0x706172652E636F6D2F646174612F PUSH17 0x726963656D756C746966756C6C3F667379 PUSH14 0x733D425443267473796D733D5553 DIFFICULTY MSTORE8 PUSH16 0x75726365206D75737420626520746865 KECCAK256 PUSH16 0x7261636C65206F662074686520726571 PUSH22 0x657374A2646970667358221220E9952E9525BB4BF554 BALANCE PUSH9 0xFD2CECCDA913DF42A TIMESTAMP MSIZE 0x1E PUSH17 0x9B034B2DC208499E64736F6C634300060C STOP CALLER ",
  "sha1": "9b0fb24c4a4bd5323c75ad7ca0995f689f511f0c",
  "source": "pragma solidity ^0.6.6;\n\nimport \"@chainlink/contracts/src/v0.6/ChainlinkClient.sol\";\nimport \"@chainlink/contracts/src/v0.6/vendor/Ownable.sol\";\nimport \"@chainlink/contracts/src/v0.6/interfaces/AggregatorV3Interface.sol\";\n\ncontract PriceExercise is ChainlinkClient {\n\n\n    address private oracle;\n    bytes32 private jobId;\n    uint256 private fee;\n    AggregatorV3Interface internal priceFeed;\n    bool public priceFeedGreater;\n\n    /**\n     * Network: Kovan\n     * Chainlink - 0x2f90A6D021db21e1B2A077c5a37B3C7E75D15b7e\n     * Chainlink - 29fa9aa13bf1468788b7cc4a500a45b8\n     * Fee: 0.1 LINK\n     */\n      constructor(address _oracle, string memory _jobId, uint256 _fee, address _link, address _priceFeed) public {\n        if (_link == address(0)) {\n            setPublicChainlinkToken();\n        } else {\n            setChainlinkToken(_link);\n        }\n        // oracle = 0x2f90A6D021db21e1B2A077c5a37B3C7E75D15b7e;\n        // jobId = \"29fa9aa13bf1468788b7cc4a500a45b8\";\n        // fee = 0.1 * 10 ** 18; // 0.1 LINK\n        oracle = _oracle;\n        jobId = stringToBytes32(_jobId);\n        fee = _fee;\n        priceFeed = AggregatorV3Interface(_priceFeed);\n    }\n\n    /**\n     * Create a Chainlink request to retrieve API response, find the target\n     * data, then multiply by 1000000000000000000 (to remove decimal places from data).\n     ************************************************************************************\n     *                                    STOP!                                         *\n     *         THIS FUNCTION WILL FAIL IF THIS CONTRACT DOES NOT OWN LINK               *\n     *         ----------------------------------------------------------               *\n     *         Learn how to obtain testnet LINK and fund this contract:                 *\n     *         ------- https://docs.chain.link/docs/acquire-link --------               *\n     *         ---- https://docs.chain.link/docs/fund-your-contract -----               *\n     *                                                                                  *\n     ************************************************************************************/\n    function requestPriceData() public returns (bytes32 requestId)\n    {\n        Chainlink.Request memory request = buildChainlinkRequest(jobId, address(this), this.fulfill.selector);\n\n        // Set the URL to perform the GET request on\n        request.add(\"get\", \"https://min-api.cryptocompare.com/data/pricemultifull?fsyms=BTC&tsyms=USD\");\n\n        // Set the path to find the desired data in the API response, where the response format is:\n        // {\"RAW\":\n        //      {\"ETH\":\n        //          {\"USD\":\n        //              {\n        //                  ...,\n        //                  \"VOLUME24HOUR\": xxx.xxx,\n        //                  ...\n        //              }\n        //          }\n        //      }\n        //  }\n        request.add(\"path\", \"RAW.BTC.USD.PRICE\");\n\n        // Multiply the result by 1000000000000000000 to remove decimals\n        int timesAmount = 10**18;\n        request.addInt(\"times\", timesAmount);\n\n        // Sends the request\n        return sendChainlinkRequestTo(oracle, request, fee);\n    }\n\n    /**\n     * Receive the response in the form of uint256\n     */\n    function fulfill(bytes32 _requestId, int256 _price) public recordChainlinkFulfillment(_requestId)\n    {\n       if (getLatestPrice() > _price) {\n           priceFeedGreater = true;\n       } else {\n           priceFeedGreater = false;\n       }\n    }\n\n    /**\n     * Withdraw LINK from this contract\n     *\n     * NOTE: DO NOT USE THIS IN PRODUCTION AS IT CAN BE CALLED BY ANY ADDRESS.\n     * THIS IS PURELY FOR EXAMPLE PURPOSES ONLY.\n     */\n    function withdrawLink() external {\n        LinkTokenInterface linkToken = LinkTokenInterface(chainlinkTokenAddress());\n        require(linkToken.transfer(msg.sender, linkToken.balanceOf(address(this))), \"Unable to transfer\");\n    }\n\n    function getLatestPrice() public view returns (int) {\n        (\n            uint80 roundID,\n            int price,\n            uint startedAt,\n            uint timeStamp,\n            uint80 answeredInRound\n        ) = priceFeed.latestRoundData();\n        return price;\n    }\n\n    function stringToBytes32(string memory source) public pure returns (bytes32 result) {\n        bytes memory tempEmptyStringTest = bytes(source);\n        if (tempEmptyStringTest.length == 0) {\n            return 0x0;\n        }\n\n        assembly {\n            result := mload(add(source, 32))\n        }\n    }\n}",
  "sourcePath": "contracts/PriceExercise.sol",
  "type": "contract"
}